{
  "_format": "hh-sol-artifact-1",
  "contractName": "Verifier",
  "sourceName": "contracts/bonus/SystemOfEquations/SystemOfEquationsVerifier.sol",
  "abi": [
    {
      "inputs": [
        {
          "internalType": "uint256[2]",
          "name": "a",
          "type": "uint256[2]"
        },
        {
          "internalType": "uint256[2][2]",
          "name": "b",
          "type": "uint256[2][2]"
        },
        {
          "internalType": "uint256[2]",
          "name": "c",
          "type": "uint256[2]"
        },
        {
          "internalType": "uint256[13]",
          "name": "input",
          "type": "uint256[13]"
        }
      ],
      "name": "verifyProof",
      "outputs": [
        {
          "internalType": "bool",
          "name": "r",
          "type": "bool"
        }
      ],
      "stateMutability": "view",
      "type": "function"
    }
  ],
  "bytecode": "0x608060405234801561001057600080fd5b5061298e806100206000396000f3fe608060405234801561001057600080fd5b506004361061002b5760003560e01c8063f143a75e14610030575b600080fd5b61004a600480360381019061004591906123bd565b610060565b60405161005791906125b1565b60405180910390f35b600061006a6120c8565b6040518060400160405280876000600281106100af577f4e487b7100000000000000000000000000000000000000000000000000000000600052603260045260246000fd5b60200201518152602001876001600281106100f3577f4e487b7100000000000000000000000000000000000000000000000000000000600052603260045260246000fd5b602002015181525081600001819052506040518060400160405280604051806040016040528088600060028110610153577f4e487b7100000000000000000000000000000000000000000000000000000000600052603260045260246000fd5b6020020151600060028110610191577f4e487b7100000000000000000000000000000000000000000000000000000000600052603260045260246000fd5b60200201518152602001886000600281106101d5577f4e487b7100000000000000000000000000000000000000000000000000000000600052603260045260246000fd5b6020020151600160028110610213577f4e487b7100000000000000000000000000000000000000000000000000000000600052603260045260246000fd5b60200201518152508152602001604051806040016040528088600160028110610265577f4e487b7100000000000000000000000000000000000000000000000000000000600052603260045260246000fd5b60200201516000600281106102a3577f4e487b7100000000000000000000000000000000000000000000000000000000600052603260045260246000fd5b60200201518152602001886001600281106102e7577f4e487b7100000000000000000000000000000000000000000000000000000000600052603260045260246000fd5b6020020151600160028110610325577f4e487b7100000000000000000000000000000000000000000000000000000000600052603260045260246000fd5b6020020151815250815250816020018190525060405180604001604052808560006002811061037d577f4e487b7100000000000000000000000000000000000000000000000000000000600052603260045260246000fd5b60200201518152602001856001600281106103c1577f4e487b7100000000000000000000000000000000000000000000000000000000600052603260045260246000fd5b602002015181525081604001819052506000600d67ffffffffffffffff811115610414577f4e487b7100000000000000000000000000000000000000000000000000000000600052604160045260246000fd5b6040519080825280602002602001820160405280156104425781602001602082028036833780820191505090505b50905060005b600d8110156104e7578481600d811061048a577f4e487b7100000000000000000000000000000000000000000000000000000000600052603260045260246000fd5b60200201518282815181106104c8577f4e487b7100000000000000000000000000000000000000000000000000000000600052603260045260246000fd5b60200260200101818152505080806104df9061283a565b915050610448565b5060006104f48284610514565b14156105055760019250505061050c565b6000925050505b949350505050565b6000807f30644e72e131a029b85045b68181585d2833e84879b9709143e1f593f00000019050600061054461079f565b90508060800151516001865161055a9190612740565b1461059a576040517f08c379a0000000000000000000000000000000000000000000000000000000008152600401610591906125cc565b60405180910390fd5b60006040518060400160405280600081526020016000815250905060005b86518110156106fb57838782815181106105fb577f4e487b7100000000000000000000000000000000000000000000000000000000600052603260045260246000fd5b602002602001015110610643576040517f08c379a000000000000000000000000000000000000000000000000000000000815260040161063a9061260c565b60405180910390fd5b6106e6826106e1856080015160018561065c9190612740565b81518110610693577f4e487b7100000000000000000000000000000000000000000000000000000000600052603260045260246000fd5b60200260200101518a85815181106106d4577f4e487b7100000000000000000000000000000000000000000000000000000000600052603260045260246000fd5b602002602001015161137d565b6114cc565b915080806106f39061283a565b9150506105b8565b5061074b81836080015160008151811061073e577f4e487b7100000000000000000000000000000000000000000000000000000000600052603260045260246000fd5b60200260200101516114cc565b905061078161075d8660000151611667565b8660200151846000015185602001518587604001518b60400151896060015161170c565b6107915760019350505050610799565b600093505050505b92915050565b6107a76120fb565b60405180604001604052807f2d4d9aa7e302d9df41749d5507949d05dbea33fbb16c643b22f599a2be6df2e281526020017f14bedd503c37ceb061d8ec60209fe345ce89830a19230301f076caff004d19268152508160000181905250604051806040016040528060405180604001604052807f0967032fcbf776d1afc985f88877f182d38480a653f2decaa9794cbc3bf3060c81526020017f0e187847ad4c798374d0d6732bf501847dd68bc0e071241e0213bc7fc13db7ab815250815260200160405180604001604052807f304cfbd1e08a704a99f5e847d93f8c3caafddec46b7a0d379da69a4d112346a781526020017f1739c1b1a457a8c7313123d24d2f9192f896b7c63eea05a9d57f06547ad0cec88152508152508160200181905250604051806040016040528060405180604001604052807f198e9393920d483a7260bfb731fb5d25f1aa493335a9e71297e485b7aef312c281526020017f1800deef121f1e76426a00665e5c4479674322d4f75edadd46debd5cd992f6ed815250815260200160405180604001604052807f090689d0585ff075ec9e99ad690c3395bc4b313370b38ef355acdadcd122975b81526020017f12c85ea5db8c6deb4aab71808dcb408fe3d1e7690c43d37b4ce6cc0166fa7daa8152508152508160400181905250604051806040016040528060405180604001604052807f23e1a697634ae29ad26b30602c39469717de12e43f8819926d9e51700ee1fabe81526020017f0f5b69653636761d4855cbaa8908c4010b1198f9444cf50a447a0698cbb63488815250815260200160405180604001604052807f12ef0bfadc47280f97e57c1f6b8ec1d5ee08f4454dfb826f4d6602f005454b0a81526020017f17e53e58425a07ee9dba615c17d976ab20e14480d08536a5d8461bc41cacf1df8152508152508160600181905250600e67ffffffffffffffff811115610a94577f4e487b7100000000000000000000000000000000000000000000000000000000600052604160045260246000fd5b604051908082528060200260200182016040528015610acd57816020015b610aba612142565b815260200190600190039081610ab25790505b50816080018190525060405180604001604052807f1301d88b4f01771fad2fb853f38b9ce3ae46791c34f7ff0bd7a9aec9e1344d3281526020017f045aba4521911cb3a2fce145f38f7e30bb2d264153b47c897fe236f9b2f7e1c88152508160800151600081518110610b69577f4e487b7100000000000000000000000000000000000000000000000000000000600052603260045260246000fd5b602002602001018190525060405180604001604052807f1d49bcee23ee5412b0b35acb2fc5a9605f82869f86bac407054a3a3616a4432281526020017f1979c2321692d2078ad3a46f2ee502197254a5b4cf059f3adae58124bf32c7fa8152508160800151600181518110610c07577f4e487b7100000000000000000000000000000000000000000000000000000000600052603260045260246000fd5b602002602001018190525060405180604001604052807f16d91b0703930ec1da5c907088b0e11dec75631f9947e9e8afd52a67e1d47d8481526020017f26808ac1ade5dea26b60943cbcfab088f953edee97725915d155ee6d23922b828152508160800151600281518110610ca5577f4e487b7100000000000000000000000000000000000000000000000000000000600052603260045260246000fd5b602002602001018190525060405180604001604052807f0a8777c7e9abfef028df3afb2efd7737f2fa5aed88b22501cd6c6fcb3ec8593581526020017f21e31e048d4cbd2c689ed74b13fad450d11ff5a2740efc7a6a7b879431c592dc8152508160800151600381518110610d43577f4e487b7100000000000000000000000000000000000000000000000000000000600052603260045260246000fd5b602002602001018190525060405180604001604052807f13ff45b0dd03f787f1702dbb72077e98537803215d10fb7a946bb3ae2ee83cb681526020017f2e9bbfdf6a484f01260f4a6aa1817f9a04aba60e131a011d681ba87942a791818152508160800151600481518110610de1577f4e487b7100000000000000000000000000000000000000000000000000000000600052603260045260246000fd5b602002602001018190525060405180604001604052807f24c49fc5317878601d68ac4bc1b41fcbebe1c10d6cba160a0eb71285312ffd0c81526020017f095d458fc2a9fc4b875d387653ff1c85f391ff0b0e26a77c3b009ccc63794f4e8152508160800151600581518110610e7f577f4e487b7100000000000000000000000000000000000000000000000000000000600052603260045260246000fd5b602002602001018190525060405180604001604052807f0b04d5d84181e80d9dbb77a09660b69d0ac2872753de29a200c622004860204a81526020017f13ecfef7e80c0cfc2dfd3dc175e088a43a0db97a6632fea98646ad88830be84b8152508160800151600681518110610f1d577f4e487b7100000000000000000000000000000000000000000000000000000000600052603260045260246000fd5b602002602001018190525060405180604001604052807f0731ce6d387a514e4afd1ec30c5f4c7d75792bef972113800ede7c07d23ca7cb81526020017f0bbc8cb9d2ff2b4609cd62790269df8c3a3eda36f2def251b247abbbbc3f9cc18152508160800151600781518110610fbb577f4e487b7100000000000000000000000000000000000000000000000000000000600052603260045260246000fd5b602002602001018190525060405180604001604052807f1758e17865300cc703bab62a377e1a8637da98e836d5f8f605272adb1e54a0cf81526020017f02ed01014c2851f5c0fb99cb08a8852b7189df96eead3ca7e989d1f25e22b95c8152508160800151600881518110611059577f4e487b7100000000000000000000000000000000000000000000000000000000600052603260045260246000fd5b602002602001018190525060405180604001604052807f11e74f4a7312b981d2e27beea46e6b17cc6dfc745795cd0a418f0b703ff87d9f81526020017f2753a3d42c9cf624cfefa77ec255bc63c22ca040e2bfb34ec3b8546172024b8981525081608001516009815181106110f7577f4e487b7100000000000000000000000000000000000000000000000000000000600052603260045260246000fd5b602002602001018190525060405180604001604052807f29299eb2f07823621e9acdacda619ef3b61535031909c2ead7d1f48c4548e91481526020017f0e03e80926d8e134c3a886763a1dfae619179cbfefe981feaf9618b5eb5c18e48152508160800151600a81518110611195577f4e487b7100000000000000000000000000000000000000000000000000000000600052603260045260246000fd5b602002602001018190525060405180604001604052807f2857c204e4382be00d9818071a14d03035b6f16e7e6c8a2b599b73f67bedacc381526020017f081840ace85f5283fc2887a781c2e8087f1e0fefef2a4aef5c7b1d7bb29ce5ce8152508160800151600b81518110611233577f4e487b7100000000000000000000000000000000000000000000000000000000600052603260045260246000fd5b602002602001018190525060405180604001604052807f06e8d22e983fb2cf4182a3d439682ac52221f00d83c254cd762a41145062036681526020017f274e3fc7ecbbbb146cd70f1a49ec7f352844fed89d4b179a609a0624eea3460e8152508160800151600c815181106112d1577f4e487b7100000000000000000000000000000000000000000000000000000000600052603260045260246000fd5b602002602001018190525060405180604001604052807f116ad62ae5b91064160ba2ff91b0e94426769790760e19b0addf486331d19b9e81526020017f0bb1bfb01df7bfdb7f62ef0de081abe0e3836f0d23be8d3c3545b42b5ec943e38152508160800151600d8151811061136f577f4e487b7100000000000000000000000000000000000000000000000000000000600052603260045260246000fd5b602002602001018190525090565b611385612142565b61138d61215c565b8360000151816000600381106113cc577f4e487b7100000000000000000000000000000000000000000000000000000000600052603260045260246000fd5b602002018181525050836020015181600160038110611414577f4e487b7100000000000000000000000000000000000000000000000000000000600052603260045260246000fd5b6020020181815250508281600260038110611458577f4e487b7100000000000000000000000000000000000000000000000000000000600052603260045260246000fd5b602002018181525050600060608360808460076107d05a03fa9050806000811461148157611483565bfe5b50806114c4576040517f08c379a00000000000000000000000000000000000000000000000000000000081526004016114bb906125ec565b60405180910390fd5b505092915050565b6114d4612142565b6114dc61217e565b83600001518160006004811061151b577f4e487b7100000000000000000000000000000000000000000000000000000000600052603260045260246000fd5b602002018181525050836020015181600160048110611563577f4e487b7100000000000000000000000000000000000000000000000000000000600052603260045260246000fd5b6020020181815250508260000151816002600481106115ab577f4e487b7100000000000000000000000000000000000000000000000000000000600052603260045260246000fd5b6020020181815250508260200151816003600481106115f3577f4e487b7100000000000000000000000000000000000000000000000000000000600052603260045260246000fd5b602002018181525050600060608360c08460066107d05a03fa9050806000811461161c5761161e565bfe5b508061165f576040517f08c379a00000000000000000000000000000000000000000000000000000000081526004016116569061264c565b60405180910390fd5b505092915050565b61166f612142565b60007f30644e72e131a029b85045b68181585d97816a916871ca8d3c208c16d87cfd479050600083600001511480156116ac575060008360200151145b156116d0576040518060400160405280600081526020016000815250915050611707565b6040518060400160405280846000015181526020018285602001516116f59190612883565b8361170091906127f0565b8152509150505b919050565b600080600467ffffffffffffffff811115611750577f4e487b7100000000000000000000000000000000000000000000000000000000600052604160045260246000fd5b60405190808252806020026020018201604052801561178957816020015b611776612142565b81526020019060019003908161176e5790505b5090506000600467ffffffffffffffff8111156117cf577f4e487b7100000000000000000000000000000000000000000000000000000000600052604160045260246000fd5b60405190808252806020026020018201604052801561180857816020015b6117f56121a0565b8152602001906001900390816117ed5790505b5090508a82600081518110611846577f4e487b7100000000000000000000000000000000000000000000000000000000600052603260045260246000fd5b6020026020010181905250888260018151811061188c577f4e487b7100000000000000000000000000000000000000000000000000000000600052603260045260246000fd5b602002602001018190525086826002815181106118d2577f4e487b7100000000000000000000000000000000000000000000000000000000600052603260045260246000fd5b60200260200101819052508482600381518110611918577f4e487b7100000000000000000000000000000000000000000000000000000000600052603260045260246000fd5b6020026020010181905250898160008151811061195e577f4e487b7100000000000000000000000000000000000000000000000000000000600052603260045260246000fd5b602002602001018190525087816001815181106119a4577f4e487b7100000000000000000000000000000000000000000000000000000000600052603260045260246000fd5b602002602001018190525085816002815181106119ea577f4e487b7100000000000000000000000000000000000000000000000000000000600052603260045260246000fd5b60200260200101819052508381600381518110611a30577f4e487b7100000000000000000000000000000000000000000000000000000000600052603260045260246000fd5b6020026020010181905250611a458282611a55565b9250505098975050505050505050565b60008151835114611a9b576040517f08c379a0000000000000000000000000000000000000000000000000000000008152600401611a929061262c565b60405180910390fd5b6000835190506000600682611ab09190612796565b905060008167ffffffffffffffff811115611af4577f4e487b7100000000000000000000000000000000000000000000000000000000600052604160045260246000fd5b604051908082528060200260200182016040528015611b225781602001602082028036833780820191505090505b50905060005b8381101561200757868181518110611b69577f4e487b7100000000000000000000000000000000000000000000000000000000600052603260045260246000fd5b602002602001015160000151826000600684611b859190612796565b611b8f9190612740565b81518110611bc6577f4e487b7100000000000000000000000000000000000000000000000000000000600052603260045260246000fd5b602002602001018181525050868181518110611c0b577f4e487b7100000000000000000000000000000000000000000000000000000000600052603260045260246000fd5b602002602001015160200151826001600684611c279190612796565b611c319190612740565b81518110611c68577f4e487b7100000000000000000000000000000000000000000000000000000000600052603260045260246000fd5b602002602001018181525050858181518110611cad577f4e487b7100000000000000000000000000000000000000000000000000000000600052603260045260246000fd5b602002602001015160000151600060028110611cf2577f4e487b7100000000000000000000000000000000000000000000000000000000600052603260045260246000fd5b6020020151826002600684611d079190612796565b611d119190612740565b81518110611d48577f4e487b7100000000000000000000000000000000000000000000000000000000600052603260045260246000fd5b602002602001018181525050858181518110611d8d577f4e487b7100000000000000000000000000000000000000000000000000000000600052603260045260246000fd5b602002602001015160000151600160028110611dd2577f4e487b7100000000000000000000000000000000000000000000000000000000600052603260045260246000fd5b6020020151826003600684611de79190612796565b611df19190612740565b81518110611e28577f4e487b7100000000000000000000000000000000000000000000000000000000600052603260045260246000fd5b602002602001018181525050858181518110611e6d577f4e487b7100000000000000000000000000000000000000000000000000000000600052603260045260246000fd5b602002602001015160200151600060028110611eb2577f4e487b7100000000000000000000000000000000000000000000000000000000600052603260045260246000fd5b6020020151826004600684611ec79190612796565b611ed19190612740565b81518110611f08577f4e487b7100000000000000000000000000000000000000000000000000000000600052603260045260246000fd5b602002602001018181525050858181518110611f4d577f4e487b7100000000000000000000000000000000000000000000000000000000600052603260045260246000fd5b602002602001015160200151600160028110611f92577f4e487b7100000000000000000000000000000000000000000000000000000000600052603260045260246000fd5b6020020151826005600684611fa79190612796565b611fb19190612740565b81518110611fe8577f4e487b7100000000000000000000000000000000000000000000000000000000600052603260045260246000fd5b6020026020010181815250508080611fff9061283a565b915050611b28565b506120106121c6565b6000602082602086026020860160086107d05a03fa9050806000811461203557612037565bfe5b5080612078576040517f08c379a000000000000000000000000000000000000000000000000000000000815260040161206f9061266c565b60405180910390fd5b6000826000600181106120b4577f4e487b7100000000000000000000000000000000000000000000000000000000600052603260045260246000fd5b602002015114159550505050505092915050565b60405180606001604052806120db612142565b81526020016120e86121a0565b81526020016120f5612142565b81525090565b6040518060a0016040528061210e612142565b815260200161211b6121a0565b81526020016121286121a0565b81526020016121356121a0565b8152602001606081525090565b604051806040016040528060008152602001600081525090565b6040518060600160405280600390602082028036833780820191505090505090565b6040518060800160405280600490602082028036833780820191505090505090565b60405180604001604052806121b36121e8565b81526020016121c06121e8565b81525090565b6040518060200160405280600190602082028036833780820191505090505090565b6040518060400160405280600290602082028036833780820191505090505090565b600061221d612218846126bd565b61268c565b9050808285604086028201111561223357600080fd5b60005b8581101561226357816122498882612381565b845260208401935060408301925050600181019050612236565b5050509392505050565b600061228061227b846126e3565b61268c565b9050808285602086028201111561229657600080fd5b60005b858110156122c657816122ac88826123a8565b845260208401935060208301925050600181019050612299565b5050509392505050565b60006122e36122de84612709565b61268c565b905080828560208602820111156122f957600080fd5b60005b85811015612329578161230f88826123a8565b8452602084019350602083019250506001810190506122fc565b5050509392505050565b600082601f83011261234457600080fd5b600261235184828561220a565b91505092915050565b600082601f83011261236b57600080fd5b600d61237884828561226d565b91505092915050565b600082601f83011261239257600080fd5b600261239f8482856122d0565b91505092915050565b6000813590506123b781612941565b92915050565b6000806000806102a085870312156123d457600080fd5b60006123e287828801612381565b94505060406123f387828801612333565b93505060c061240487828801612381565b9250506101006124168782880161235a565b91505092959194509250565b61242b81612824565b82525050565b600061243e60128361272f565b91507f76657269666965722d6261642d696e70757400000000000000000000000000006000830152602082019050919050565b600061247e60128361272f565b91507f70616972696e672d6d756c2d6661696c656400000000000000000000000000006000830152602082019050919050565b60006124be601f8361272f565b91507f76657269666965722d6774652d736e61726b2d7363616c61722d6669656c64006000830152602082019050919050565b60006124fe60168361272f565b91507f70616972696e672d6c656e677468732d6661696c6564000000000000000000006000830152602082019050919050565b600061253e60128361272f565b91507f70616972696e672d6164642d6661696c656400000000000000000000000000006000830152602082019050919050565b600061257e60158361272f565b91507f70616972696e672d6f70636f64652d6661696c656400000000000000000000006000830152602082019050919050565b60006020820190506125c66000830184612422565b92915050565b600060208201905081810360008301526125e581612431565b9050919050565b6000602082019050818103600083015261260581612471565b9050919050565b60006020820190508181036000830152612625816124b1565b9050919050565b60006020820190508181036000830152612645816124f1565b9050919050565b6000602082019050818103600083015261266581612531565b9050919050565b6000602082019050818103600083015261268581612571565b9050919050565b6000604051905081810181811067ffffffffffffffff821117156126b3576126b2612912565b5b8060405250919050565b600067ffffffffffffffff8211156126d8576126d7612912565b5b602082029050919050565b600067ffffffffffffffff8211156126fe576126fd612912565b5b602082029050919050565b600067ffffffffffffffff82111561272457612723612912565b5b602082029050919050565b600082825260208201905092915050565b600061274b82612830565b915061275683612830565b9250827fffffffffffffffffffffffffffffffffffffffffffffffffffffffffffffffff0382111561278b5761278a6128b4565b5b828201905092915050565b60006127a182612830565b91506127ac83612830565b9250817fffffffffffffffffffffffffffffffffffffffffffffffffffffffffffffffff04831182151516156127e5576127e46128b4565b5b828202905092915050565b60006127fb82612830565b915061280683612830565b925082821015612819576128186128b4565b5b828203905092915050565b60008115159050919050565b6000819050919050565b600061284582612830565b91507fffffffffffffffffffffffffffffffffffffffffffffffffffffffffffffffff821415612878576128776128b4565b5b600182019050919050565b600061288e82612830565b915061289983612830565b9250826128a9576128a86128e3565b5b828206905092915050565b7f4e487b7100000000000000000000000000000000000000000000000000000000600052601160045260246000fd5b7f4e487b7100000000000000000000000000000000000000000000000000000000600052601260045260246000fd5b7f4e487b7100000000000000000000000000000000000000000000000000000000600052604160045260246000fd5b61294a81612830565b811461295557600080fd5b5056fea26469706673582212202a10abb4b3b24ddfbd2c31cf98f878ec36d8165636d21c0decf8e22494bd4a1e64736f6c63430008000033",
  "linkReferences": {},
  "deployedLinkReferences": {}
}